:020000040800F2
:1000000018060020450100084114000815090008E1
:100010003D14000899020008291D00080000000096
:100020000000000000000000000000004918000867
:100030009D02000800000000F914000835190008AE
:100040005F0100085F0100085F0100085F01000810
:100050005F0100085F010008B10200085F010008AD
:100060005F0100085F0100085F0100085F010008F0
:100070005F0100085F0100085F0100085F010008E0
:100080005F0100085F0100085F0100085F010008D0
:100090005F0100085F0100085F0100085F010008C0
:1000A0005F0100085F0100085F0100085F010008B0
:1000B0005F0100085F0100085F0100085F010008A0
:1000C0005F0100085F0100085F0100085F01000890
:1000D0005F010008151A00085F0100085F010008B1
:1000E000510300085F0100085F0100085F0100087C
:1000F0005F0100085F0100085F0100085F01000860
:100100005F0100085F0100085F0100085F0100084F
:100110005F0100085F0100085F0100085F0100083F
:100120005F0100085F0100085F0100085F0100082F
:10013000DFF80CD000F05CF800480047752A000892
:10014000180600200648804706480047FEE7FEE7FD
:10015000FEE7FEE7FEE7FEE7FEE7FEE7FEE7FEE777
:10016000B5190008310100080649074A08685043DC
:1001700043F23902104408604008704701490860A2
:1001800070470000A40000206D4EC6412DE9F05FCD
:100190000546002092469B468846064681464024F6
:1001A0001BE0284641464746224600F042F85346A7
:1001B0005A46C01A914110D311461846224600F003
:1001C00029F82D1A67EB01084F462246012000212D
:1001D00000F020F817EB00094E41201EA4F10104A5
:1001E000DFDC484631462A464346BDE8F09F000022
:1001F000064C074D06E0E06840F0010394E8070074
:1002000098471034AC42F6D3FFF796FF506A0008C7
:10021000706A0008202A04DB203A00FA02F100206C
:1002200070479140C2F1200320FA03F31943904034
:100230007047202A04DB203A21FA02F0002170479F
:1002400021FA02F3D040C2F120029140084319463E
:100250007047000008B50121042001F05FF94FF458
:100260008070ADF8000010208DF8030003208DF899
:1002700002006946014800F093FA08BD00080140F9
:1002800010B5FFF7E7FF4FF48071024800F013FB51
:1002900010BD00000008014000BFFEE7704701B537
:1002A00002E00098401E009000980028F9D108BD97
:1002B00010B5012000F0E6F8002835D01B48007882
:1002C00018B901201949087010BD03201849088089
:1002D00018A001F02BFD1648008803280ED11748FE
:1002E00090F8F200032804D0144890F8F200042893
:1002F00004D10220114981F8F2000CE00C4800887A
:10030000032808D10D4890F8F200042803D00320F8
:100310000A4981F8F200094890F8F21008A001F0AB
:1003200005FD012000F0A8F800BFCDE72C0000205B
:100330002E0000206B657920310A00002401002086
:10034000446972656374696F6E3D25640A0000003C
:1003500010B54FF4005000F095F878B304203A49F6
:1003600008803AA001F0E2FC3748008804280ED14A
:10037000384890F8F200032804D0364890F8F2008C
:10038000042804D10120334981F8F2000CE02E4802
:100390000088042808D12F4890F8F200032803D0E1
:1003A00004202C4981F8F2002A4890F8F2102AA083
:1003B00001F0BCFC4FF4005000F05EF84FF4806098
:1003C00000F060F8E0B101201F49088026A001F08C
:1003D000ADFC1D480088022808D11E4890F8F200A4
:1003E000022803D001201B4981F8F200194890F837
:1003F000F21019A001F09AFC4FF4806000F03CF874
:100400004FF4006000F03EF8E0B102200E49088091
:1004100017A001F08BFC0C480088022808D10D4879
:1004200090F8F200012803D002200A4981F8F20076
:10043000084890F8F21008A001F078FC4FF4006032
:1004400000F01AF810BD00002E0000206B65792026
:10045000320A000024010020446972656374696FE8
:100460006E3D25640A0000006B657920330A0000A8
:100470006B657920340A000001490860704700006C
:1004800014040140014600200022074B1B6803EAC8
:100490000102054B14331B680B4013B10AB1012054
:1004A00000E00020704700000004014000212349C3
:1004B0008279002A3AD00A46126803689A430B46AA
:1004C0001A600A1D126803689A430B1D1A600279AC
:1004D00011440A6803681A430A60184A083212680D
:1004E00003689A43154B08331A601A1D1268036893
:1004F0009A43124B0C331A604279102A0ED11A1FFC
:10050000126803681A430D4B08331A601A1D1268EB
:1005100003681A43094B0C331A600DE0074942790E
:1005200011440A6803681A430A6005E0027911441D
:100530000A6803689A430A6070470000000401409B
:100540000EB50121052000F0E9FF00F07AFF01203F
:10055000ADF8080004208DF80B0002A9374800F020
:100560001FF90021084600F0FBF801200090002050
:100570008DF8040008208DF8050001208DF8060094
:100580006846FFF793FF4FF40050ADF808000420D1
:100590008DF80B0002A92A4800F002F90D21022073
:1005A00000F0DEF84FF40050009000208DF80400B9
:1005B0000C208DF8050001208DF806006846FFF735
:1005C00075FF4FF48060ADF8080004208DF80B0033
:1005D00002A91B4800F0E4F80A21022000F0C0F84C
:1005E0004FF48060009000208DF804000C208DF8FE
:1005F000050001208DF806006846FFF757FF4FF40D
:100600000060ADF8080004208DF80B0002A90C482A
:1006100000F0C6F80B21022000F0A2F84FF40060B1
:10062000009000208DF804000C208DF805000120BA
:100630008DF806006846FFF739FF0EBD000801403F
:100640000010014051B18200A2F1C042126842F094
:1006500001038200A2F1C042136009E08200A2F10E
:10066000C0421268034B1A408300A3F1C0431A60D2
:1006700070470000FEFF0F00D0E901121143C2686D
:100680001143026911434269114382691143C269EE
:100690001143026A1143426A1143826A1143C26ADA
:1006A0001143026B114302689200A2F1C042116033
:1006B000816808290BD101688900A1F1C04109684E
:1006C00041F0400201688900A1F1C0410A60416B1C
:1006D0000968426B526841EA0211426B926841EA32
:1006E0000221426B928941EA0241426B128A41EA3D
:1006F0000251426B127D41EA0261426B92691143E1
:100700000268521C9200A2F1C0421160C16AB1F5A8
:10071000804F1BD1816B0968826B526841EA0211DC
:10072000826B926841EA0221826B128A41EA02518D
:10073000826B127D41EA0261826B92691143026809
:100740009200A2F1C042C2F8041107E06FF07042BB
:1007500001688900A1F1C041C1F80421704700007F
:1007600030B500228B071C0F0F2303FA04F20B4B4A
:100770008C1053F824309343084C8D1044F82530E6
:1007800023468C1053F824308C07240F00FA04F40D
:100790002343024C8D1044F8253030BD0800014041
:1007A0002DE9F04102460025002600200023002408
:1007B000002791F803C00CF00F0591F803C00CF06E
:1007C000100CBCF1000F03D091F802C04CEA0505F3
:1007D00091F800C0BCF1000F31D0146800202BE06C
:1007E0004FF0010C0CFA00F3B1F800C00CEA03065C
:1007F0009E4220D183004FF00F0C0CFA03F7BC434C
:1008000005FA03FC4CEA040491F803C0BCF1280F7C
:1008100006D14FF0010C0CFA00FCC2F814C00AE03B
:1008200091F803C0BCF1480F05D14FF0010C0CFA50
:1008300000FCC2F810C0401C0828D1D31460B1F8E5
:1008400000C0BCF1FF0F34DD546800202EE000F141
:10085000080C4FF0010808FA0CF3B1F800C00CEADC
:1008600003069E4221D183004FF00F0C0CFA03F7D0
:10087000BC4305FA03FC4CEA040491F803C0BCF144
:10088000280F05D100F1080C08FA0CF8C2F8148002
:1008900091F803C0BCF1480F07D100F1080C4FF0EC
:1008A000010808FA0CF8C2F81080401C0828CED3C2
:1008B0005460BDE8F08141617047016170470000FC
:1008C0002DE9F04180460C461048007820B900F030
:1008D000D3FE01200D4908702512E6B2A5F1A10151
:1008E000C1EB011202EB411106EB4101A1390802F3
:1008F000C11700EB5171CF1005483918202240462E
:1009000000F092FE0020BDE8F08100009C00002075
:100910000030180000BFFEE710B504462CB14FF4BC
:1009200080510548FFF7C7FF04E04FF480510248AB
:10093000FFF7C3FF10BD0000001401402DE9F04196
:1009400006460F4614461D462B462246394630467B
:1009500000F040FB04FB05F00249098800F0EDF9C6
:10096000BDE8F0816A00002001B502E00098401E59
:10097000009000980028F9D108BD00002DE9F0434F
:1009800089B080468946174610231A464946404694
:1009900000F020FB2C2000F09FFC394601A8FFF757
:1009A0008FFF002422E001A810F814604FF6FF70BA
:1009B00000EA0626012000EB440001A9085C06437A
:1009C00000250FE04FF400402841304020B10A4894
:1009D000008800F085FC03E00848008800F080FCF7
:1009E000681CC5B2102DEDDB601CC4B2102CDADB24
:1009F00009B0BDE8F0830000680000206A00002014
:100A00002DE9F05F804689461646A6F120001FFAC0
:100A100080FA1E49096889881C4A1268D28801FB3D
:100A200002F0C11700EB5171C1F3C7071748006806
:100A300000680AFB070B15480068C3881348006864
:100A400082884946404600F0C5FA2C2000F044FC5C
:100A5000002416E0002510E01BF804008021294145
:100A6000084020B10A48008800F03AFC03E0094839
:100A7000008800F035FC681CC5B2082DECDB601C5A
:100A8000C4B2BC42E6DBBDE8F09F00006400002079
:100A9000680000206A00002070B504460D4600265C
:100AA00024E03046134909688988084412490988B6
:100AB000884205DD00260F480068C088204484B2C3
:100AC00020460C490968C98808440C4909888842AD
:100AD00001DD002600242A7821463046FFF790FFEA
:100AE0006D1C044800688088304486B2287800284D
:100AF000D7D170BD640000205C0000205E000020A3
:100B00002DE9F04105460C46002648E020787E2875
:100B100025DC304624490968898808442349098826
:100B2000884205DD002620480068C088284485B238
:100B300028461D490968C98808441D490988884212
:100B400001DD00260025227829463046FFF758FFB0
:100B5000154800688088304486B2641C1FE0304627
:100B6000103012490988884203DD002605F1100083
:100B700085B2284610300E490988884201DD0026DA
:100B800000252788380200EB272087B23A462946FD
:100B90003046FFF7F3FE06F1100086B2A41C207861
:100BA0000028B3D1BDE8F081640000205C00002083
:100BB0005E0000202DE9FF4F83B081464FF0000A10
:100BC000D3460598A0EB090504990698461ACDF876
:100BD000049004980090002D01DD012705E00DB977
:100BE000002702E04FF0FF376D42002E02DD4FF08C
:100BF000010806E016B94FF0000802E04FF0FF3898
:100C00007642B54201DD2C4600E0344600200290D9
:100C100019E0DDE9001000F043FBAA44B344A2450B
:100C200005DDAAEB040A0198384480B20190A3457F
:100C300005DDABEB040B0098404480B200900298B5
:100C4000401C80B20290611C02988842E1DD07B02E
:100C5000BDE8F08F2DE9F04104460D4616461F46CB
:100C6000DDF81880B8F1000F0CD03B46324629461B
:100C7000204600F0AFF906FB07F01749098800F09D
:100C80005CF827E0A019401E82B22B462946204678
:100C9000FFF790FFE819401E83B2A019401E82B2F0
:100CA000E819401E81B22046FFF784FFE819401E74
:100CB00083B2224629462046FFF77CFFE919491EE8
:100CC0008BB2A119491E8AB2A119491E88B22946C0
:100CD000FFF770FFBDE8F0816800002000B597B015
:100CE0000121080200F00AFC012001900420039079
:100CF00080060790002002900490059006900890CE
:100D0000099008200A9010200B9000200C900E9063
:100D10000F9010904FF4805011900020129013907B
:100D2000149001A81590169008A8FFF7A5FC0121C2
:100D30000020FFF787FC17B000BD70B504460D46D4
:100D400000262C2000F0C8FA00BF03E0284600F07F
:100D5000C7FA761CA642F9D370BD000008B5012180
:100D6000602000F0DBFB03208DF8020018208DF8D6
:100D700003004FF48040ADF8000069465B48FFF780
:100D80000FFD4FF40040ADF8000069465748FFF7EB
:100D900007FD0120ADF8000069465448FFF700FD4B
:100DA0000220ADF8000069465048FFF7F9FC8020AA
:100DB000ADF8000069464E48FFF7F2FC4FF4807032
:100DC000ADF8000069464A48FFF7EAFC4FF40070AE
:100DD000ADF8000069464648FFF7E2FC4FF480603A
:100DE000ADF8000069464248FFF7DAFC4FF40060B6
:100DF000ADF8000069463E48FFF7D2FC4FF4805042
:100E0000ADF8000069463A48FFF7CAFC4FF40050BD
:100E1000ADF8000069463648FFF7C2FC4FF4804049
:100E2000ADF8000069463248FFF7BAFC4FF40040C5
:100E3000ADF8000069462E48FFF7B2FC4FF4807011
:100E4000ADF8000069462948FFF7AAFC4FF400708E
:100E5000ADF8000069462548FFF7A2FC4FF480601A
:100E6000ADF8000069462148FFF79AFC03208DF891
:100E7000020018208DF803001020ADF8000069462C
:100E80001A48FFF78DFC2020ADF80000694617488E
:100E9000FFF786FC8020ADF8000069461348FFF795
:100EA0007FFC4FF40060ADF8000069460F48FFF783
:100EB00077FC10208DF8030003208DF8020002203B
:100EC000ADF8000069460A48FFF76AFC10208DF86B
:100ED000030003208DF802004FF48050ADF80000AD
:100EE00069460248FFF75CFC08BD000000140140A1
:100EF0000018014010B50446072C00DD10BD28483D
:100F00000470204604EBD0714910A4EB410139B9BB
:100F1000F020244908804FF4A0702349088006E09F
:100F20004FF4A0701F490880F0201F490880362028
:100F300000F0D2F9082141EA441000F0D1F92A204A
:100F400000F0CAF9002000F0CBF9002000F0C8F949
:100F500014490988491EC1F3072000F0C1F911495D
:100F60000978491EC8B200F0BBF92B2000F0B4F993
:100F7000002000F0B5F9002000F0B2F90A49098814
:100F8000491EC1F3072000F0ABF907490978491E53
:100F9000C8B200F0A5F92C2000F09EF900BFADE723
:100FA000600000205C0000205E00002010B5FFF70C
:100FB000D5FEFFF793FE0120FFF7AEFC00F052F9DB
:100FC00000F038F802480078FFF794FF10BD0000E9
:100FD000600000202DE9F04104460D4616461F46EC
:100FE0002A2000F079F9201200F07AF9E0B200F03E
:100FF00077F9A119491EC1F30F2000F071F9A11969
:10100000491EC8B200F06CF92B2000F065F92812D7
:1010100000F066F9E8B200F063F9E919491EC1F37E
:101020000F2000F05DF9E919491EC8B200F058F927
:10103000BDE8F08110B5CF2000F04EF9002000F09F
:101040004FF9812000F04CF9302000F049F9ED20F3
:1010500000F042F9642000F043F9032000F040F969
:10106000122000F03DF9812000F03AF9E82000F06C
:1010700033F9852000F034F9102000F031F97820A0
:1010800000F02EF9CB2000F027F9392000F028F9E4
:101090002C2000F025F9002000F022F9342000F087
:1010A0001FF9022000F01CF9F72000F015F92020AC
:1010B00000F016F9EA2000F00FF9002000F010F916
:1010C000002000F00DF9B12000F006F9002000F03A
:1010D00007F91B2000F004F9B62000F0FDF80A2003
:1010E00000F0FEF8A22000F0FBF8C02000F0F4F8B9
:1010F000352000F0F5F8C12000F0EEF8112000F0E6
:10110000EFF8C52000F0E8F8452000F0E9F84520A8
:1011100000F0E6F8C72000F0DFF8A22000F0E0F8C9
:10112000F22000F0D9F8002000F0DAF8262000F0D4
:10113000D3F8012000F0D4F8E02000F0CDF80F2023
:1011400000F0CEF8262000F0CBF8242000F0C8F8FC
:101150000B2000F0C5F80E2000F0C2F8092000F0C6
:10116000BFF8542000F0BCF8A82000F0B9F84620E1
:1011700000F0B6F80C2000F0B3F8172000F0B0F83B
:10118000092000F0ADF80F2000F0AAF8072000F0C9
:10119000A7F8002000F0A4F8E12000F09DF800205E
:1011A00000F09EF8192000F09BF81B2000F098F842
:1011B000042000F095F8102000F092F8072000F0CD
:1011C0008FF82A2000F08CF8472000F089F83920A9
:1011D00000F086F8032000F083F8062000F080F885
:1011E000062000F07DF8302000F07AF8382000F07A
:1011F00077F80F2000F074F8362000F06DF8C82062
:1012000000F06EF82A2000F067F8002000F068F87F
:10121000002000F065F8002000F062F8EF2000F0F8
:101220005FF82B2000F058F8002000F059F800205B
:1012300000F056F8012000F053F83F2000F050F87D
:101240003A2000F049F8552000F04AF8112000F04B
:1012500043F80348FFF788FB292000F03DF810BD54
:10126000FCBF020010B502210748FFF724FB40F63F
:10127000FF20FFF779FB02210348FFF71EFB40F632
:10128000FF20FFF771FB10BD0018014070B5044648
:101290000D4601231A4629462046FFF79BFE70BDE6
:1012A00070B505460C460948008885420CDA0848A6
:1012B0000088844208DA21462846FFF7E7FF054800
:1012C00001880120FFF739FD70BD00005C0000209F
:1012D0005E000020680000204FF0C0410880704789
:1012E00001490880704700000000026008B5012134
:1012F000142000F013F90120ADF8000004208DF84F
:10130000030069460C48FFF74BFA4FF40050ADF864
:10131000000004208DF8030069460848FFF740FAF2
:101320004FF48060ADF8000004208DF8030069469A
:101330000248FFF735FA08BD0008014000100140DF
:10134000014800687047000064000020024A1080D5
:10135000024A118070470000680000206A000020E7
:1013600001490860704700006400002001490880BE
:10137000704700006800002010B5B2B04FF4FC6068
:10138000FFF7F4FF07A1684600F0E0FCFFF7D8FF85
:10139000C48869462046FFF7B3FB0848FEF77FFF85
:1013A00032B010BD20202020202020202020CCB0D2
:1013B000B3D4C9DFD3CECFB700000000FFFF0F00CA
:1013C00008B50121082000F0A9F82020ADF80000A0
:1013D00010208DF8030003208DF8020069460D48A7
:1013E000FFF7DEF90121082000F098F80120ADF8A0
:1013F000000069460748FFF7D3F90121082000F0F3
:101400008DF80220ADF8000069460248FFF7C8F9E0
:1014100008BD0000000C014010B5FFF7D1FF2021EE
:101420000548FFF74AFA01210348FFF746FA02216F
:101430000148FFF742FA10BD000C014000BFFEE773
:10144000704708B54FF4C06000F04CF806208DF8E6
:10145000000001208DF801008DF802008DF80300D6
:10146000684600F007F828208DF80000684600F074
:1014700001F808BD70B5002100230F22C47804B321
:10148000154C246804F4E064C4F5E064210AC1F159
:101490000403CA40447804FA03F1847814402143D9
:1014A00009010E4C0678A155047804F01F050124AB
:1014B000AC4005786D11AD0005F1E025C5F800419F
:1014C00009E0047804F01F050124AC40044D0678BF
:1014D000761145F8264070BD0CED00E000E400E018
:1014E00080E100E002490143024A116070470000B8
:1014F0000000FA050CED00E07047000029B1064A33
:1015000052690243044B5A6104E0034A5269824320
:10151000014B5A61704700000010024029B1064A91
:1015200092690243044B9A6104E0034A9269824340
:10153000014B9A61704700000010024030B5002155
:101540000022002400232D4D6D6805F00C0121B10F
:10155000042905D0082923D105E0294D056022E0A2
:10156000274D05601FE0254D6D6805F47012234D71
:101570006D6805F48034022505EB92421CB9214DBB
:10158000554305600BE01D4D6D6805F400351DB138
:101590001C4D5543056002E0194D5543056002E0BE
:1015A000174D056000BF00BF144D6D6805F0F001D8
:1015B0000909154D6B5C0568DD4045600F4D6D6890
:1015C00005F4E061090A104D6B5C4568DD408560FB
:1015D0000A4D6D6805F46051C90A0B4D6B5C456896
:1015E000DD40C560054D6D6805F44041890B074D30
:1015F0006B5CC568B5FBF3F5056130BD00100240BA
:1016000000127A0000093D00140000202400002090
:1016100021B1028842F04002028004E002884FF6C5
:10162000BF731A400280704770B505460C461646D7
:1016300001211048FFF73FF9032000F07DF8C4F3C3
:10164000074000F079F8C4F3072000F075F8E0B225
:1016500000F072F804E0FF2000F06EF828706D1CB6
:101660003000A6F101018EB2F5D101210148FFF74A
:1016700024F970BD0010014000B587B001210803B6
:10168000FFF74CFF0121D420FFF748FF0120ADF800
:10169000040003208DF8060010208DF8070001A932
:1016A0002248FFF77DF82020ADF8040018208DF8BF
:1016B000070001A91E48FFF773F84020ADF80400A9
:1016C00001A91B48FFF76CF88020ADF8040001A9C0
:1016D0001748FFF765F801211448FFF7EEF80020DE
:1016E000ADF808004FF48270ADF80A000020ADF8A4
:1016F0000C000220ADF80E000120ADF810004002F1
:10170000ADF812000820ADF814000020ADF8160066
:101710000720ADF8180002A9064800F057F801218B
:101720000448FFF775FF07B000BD0000001001403E
:10173000000801400030014010B504464FF48050CD
:10174000194908600AE018490868411E164A1160E4
:1017500020B9002000F058F8C0B210BD0221134893
:1017600000F026F80028EED02146104800F02CF8B2
:101770004FF480500C4908600AE00B490868411E8C
:10178000094A116020B9012000F03EF8C0B2E4E738
:101790000121064800F00CF80028EED0034800F0C4
:1017A00010F8C0B2D9E70000A000002000300140CE
:1017B0000246002013890B400BB1012000E00020FD
:1017C00070470146888970478181704710B50022B3
:1017D000028802F441520B884C8823438C882343AF
:1017E000CC8823430C8923434C8923438C8923438E
:1017F000CC8923431A430280838B4FF2FF7423402A
:1018000083830B8A038210BD10B50446214602A0D3
:1018100000F08CFA002010BD3C3C2D464C41534852
:101820002D4552524F522D3E3E2053504920B5C8AF
:10183000B4FDB3ACCAB1216572726F72436F646557
:10184000203D2025640A0000704710B500F002F822
:1018500010BD00000CB500200190009033480068D6
:1018600040F480303149086000BF3048006800F41F
:10187000003000900198401C0190009818B9019820
:10188000B0F5A06FF1D12948006800F4003010B124
:101890000120009001E0002000900098012843D131
:1018A0002348006840F0100021490860084600689D
:1018B00020F0030008600846006840F0020008605D
:1018C0001A48406819494860084640684860084618
:1018D000406840F4806048600846406820F47C100E
:1018E00048600846406840F4E810486008460068D0
:1018F00040F08070086000BF0C48006800F0007085
:101900000028F9D00948406820F0030007494860E2
:101910000846406840F00200486000BF0348406845
:1019200000F00C000828F9D10CBD000000100240A6
:10193000002002407047000030B51A4800681A4A7B
:10194000B0FBF2F1B1F1807F01D301201DE021F065
:101950007F40401E4FF0E022506150170F220028B8
:1019600007DA13071D0E114B00F00F04241F1D553D
:1019700003E013071C0E0E4B1C5400BF00204FF059
:10198000E022906107201061002008B100BFFEE74F
:101990004FF0E020006920F001004FF0E0210861E5
:1019A00030BD00000000002040420F0018ED00E0B4
:1019B00000E400E010B51348006840F00100114950
:1019C000086008464068104908400E4948600846CB
:1019D00000680E4908400B4908600846006820F47A
:1019E000802008600846406820F4FE0048604FF4FC
:1019F0001F008860FFF729FF4FF00060044908606E
:101A000010BD0000001002400000FFF8FFFFF6FECE
:101A100008ED00E010B5044640F22551144800F0EE
:101A2000C4F818B340F22551114800F035F81048B9
:101A3000001D0088C4B20F4804600FA000F076F9C2
:101A4000214611A000F072F90A4801680FA000F0C9
:101A50006DF908480068012802D10E4981F8F200AA
:101A6000022C03D102200B4981F8F20010BD0000C6
:101A70000038014078000020CAD5B5BDB5C4CAFD04
:101A8000BEDDA3BA0A00000025640A00307825787C
:101A90000A0000002401002010B50022002340F6B7
:101AA0006A14A14200D100BF0A1201249440A3B2DB
:101AB000DC43048010BD21B1828942F4005282814E
:101AC00004E082894DF6FF731A408281704700005E
:101AD00000B587B001210420FFF720FD0121880314
:101AE000FFF71CFD4FF40070ADF8180018208DF8BA
:101AF0001B0003208DF81A0006A92348FEF750FEAC
:101B00004FF48060ADF8180004208DF81B0006A982
:101B10001D48FEF745FE4FF4E13002900020ADF87D
:101B20000C00ADF80E00ADF81000ADF814000C205C
:101B3000ADF8120002A9154800F086F801211348FB
:101B4000FFF7B9FF25208DF8040000208DF805006F
:101B500002208DF8060001208DF8070001A8FFF78C
:101B600089FC012240F22551084800F048F8012183
:101B70000648FFF7A0FF012240F22551034800F07C
:101B80003EF807B000BD00000008014000380140E9
:101B900002460020B1F5007F00D100BF13880B4042
:101BA0000BB1012000E00020704770B50246002410
:101BB00000230025002040F66A16B14200D100BF84
:101BC000C1F3421501F01F03012606FA03F3012DAC
:101BD00002D19689334006E0022D02D1168A3340A5
:101BE00001E0968A33400C12012606FA04F41688A6
:101BF000344013B10CB1012000E0002070BDF0B5FD
:101C00000346002400260025002040F66A17B9424A
:101C100000D100BF1846C1F3421401F01F0601278E
:101C200007FA06F5012C01D10C3004E0022C01D199
:101C3000103000E014301AB107682F43076002E04B
:101C40000768AF430760F0BD2DE9F04786B0054651
:101C50000E460024A24600BFA1460027B08900B16D
:101C600000BF2F462C8A4CF6FF700440F0880443D6
:101C70002C82AC894EF6F3100440B08831890843B9
:101C8000718908430443AC81AC8A4FF6FF4004409D
:101C9000B0890443AC8201A8FFF750FC1F4887427B
:101CA00002D1DDF810A001E0DDF80CA0A88900F455
:101CB000004040B10AEBCA0000EB0A10316849004D
:101CC000B0FBF1F807E00AEBCA0000EB0A1031683C
:101CD0008900B0FBF1F86420B8FBF0F004012009A2
:101CE000642101FB1089A88900F4004040B1322032
:101CF00000EBC900B0FBF1F000F00700044308E07E
:101D0000322000EB09106421B0FBF1F000F00F006D
:101D100004432C8106B0BDE8F08700000038014084
:101D2000C1F308028280704700BFFEE70FB4054B85
:101D300010B503A9044A029800F02CF810BC5DF815
:101D400014FB000049250008A80000200FB4084B30
:101D500010B504A902AA039800F01CF8044602A9D1
:101D6000002000F044FA204610BC5DF814FB00008F
:101D7000EF21000802E008C8121F08C1002AFAD1AA
:101D800070477047002001E001C1121F002AFBD1FB
:101D9000704700002DE9FF4F8DB00F460546002625
:101DA00006E025280BD0DDE90F1290476D1C761C4C
:101DB00028780028F5D111B03046BDE8F08F002416
:101DC000A246A1460122EA4900E0044315F8013F7A
:101DD000203B02FA03F00842F7D128782A2810D0D5
:101DE0006FF02F022878A0F13001092914D80AEBEE
:101DF0008A0102EB410144F0020400EB010A6D1C70
:101E0000F0E701CF5FEA000A03D544F40054CAF1B9
:101E1000000A44F002046D1C28782E2817D115F80A
:101E2000010F44F004042A280ED06FF02F02287806
:101E3000A0F1300109290AD809EB890102EB41011F
:101E400000EB01096D1CF2E757F8049B6D1C287824
:101E50006C280FD006DC4C2817D068280DD06A28D3
:101E600014D104E0742810D07A280FD10DE044F486
:101E700000140AE044F4801401E044F4401469784A
:101E8000814202D104F580146D1C6D1C2A786E2AE3
:101E90001FD00CDC632A31D004DC002A8BD0582AF6
:101EA00011D19FE0642A68D0692A0CD165E0732AB9
:101EB0002ED004DC6F2A73D0702A04D197E0752AE3
:101EC0006FD0782A6ED01046DDE90F129047761C4D
:101ED0004CE1C4F30250022806D0032809D004289C
:101EE00001CF09D0066041E101CFF117C0E90061DF
:101EF0003CE101CF068039E1067037E117F8040BA9
:101F00008DF8000000208DF80100EB46012003E071
:101F100057F804BB4FF0FF3061074FF0000102D4C7
:101F20000DE008F10101884649450FDA8045F8DBEC
:101F30001BF808100029F4D108E008F101018846D7
:101F40008142FADB1BF808100029F6D1DDE90F23E6
:101F5000AAEB08008146214600F032F9304400EB3C
:101F6000080604E0DDE90F121BF8010B9047B8F1F9
:101F70000108F7D221464846F3E00A21C4F3025390
:101F80004FF0000B0891022B04D001CFC117032B97
:101F900009D00AE0FF1D27F00707F7E8020108E073
:101FA0002EE01DE01EE000B2C117042B01D140B2AB
:101FB000C117002907DA4FF0000CD0EB0C006CEBD6
:101FC00001012D2302E0230504D52B238DF82430B5
:101FD000012303E0E30701D02023F7E7984656E00A
:101FE0000A210EE010204FF0000B08900CE01021A9
:101FF0004FF0000B44F004044FF00809089103E08F
:1020000008214FF0000B0891C4F30253022B04D0B7
:1020100001CF0021032B06D006E0FF1D27F00707A4
:10202000F7E8020103E080B2042B00D1C0B24FF008
:10203000000823072BD5702A07D0DDF820C08CF0CC
:10204000100C5CEA0B0C05D00EE040238DF8243018
:10205000012308E050EA010306D030238DF8243034
:102060008DF8252002239846DDF820C08CF0080C5E
:102070005CEA0B0C0BD150EA010301D1630706D5D2
:1020800030238DF824304FF00108A9F10109582AB6
:1020900004D038A20B9208AA0A920BE03AA2F9E700
:1020A0005B46089AFEF772F80B9B9B5C0A9A521EDD
:1020B0000A92137050EA0102F2D10A98ADEB0000C7
:1020C00000F1200B600702D524F4803401E04FF0CA
:1020D0000109D94502DDA9EB0B0000E0002000EB6F
:1020E0000B0141440890AAEB010AE00306D4DDE9A4
:1020F0000F232146504600F063F806444FF00009D4
:1021000008E009A911F80900DDE90F12904709F16B
:102110000109761CC145F4DBE0030CD5DDE90F2392
:102120002146504600F04CF8064404E0DDE90F1269
:1021300030209047761C0899481E08900029F5DC4D
:1021400008E00A980A990078491C0A91DDE90F1203
:102150009047761CBBF10001ABF1010BF1DC21468D
:102160005046DDE90F2300F019F806446D1C1FE608
:10217000092801003031323334353637383961625D
:102180006364656600000000303132333435363721
:102190003839414243444546000000002DE9F041F2
:1021A000044600251E461746880404D405E0394637
:1021B0002020B0476D1C641EF9D52846BDE8F0818B
:1021C0002DE9F041044600251E469046C80301D57E
:1021D000302700E02027880404D505E04146384632
:1021E000B0476D1C641EF9D52846BDE8F0810A6829
:1021F000531C0B601070704710B5B4B0FFF7BCF8FB
:1022000000214FF6E070FFF7A1F80020F0231A46F6
:1022100028210090FEF71EFD4FF47020FEF73FF8D6
:1022200000214FF6FF70FFF791F80020DC231A46DB
:10223000322100900A20FEF70DFD4FF47020FEF7CA
:102240002EF800211F20FFF781F80020C8231A462E
:102250003C2100901420FEF7FDFC4FF47020FEF7A7
:102260001EF800214FF47840FFF770F80020B423E7
:102270001A46462100901E20FEF7ECFC4FF4702019
:10228000FEF70DF800214FF61F00FFF75FF8002062
:10229000A0231A46502100902820FEF7DBFC4FF4C3
:1022A0007020FDF7FCFF00214FF4FC60FFF74EF8B3
:1022B00000208C231A465A2100903220FEF7CAFCD7
:1022C0004FF47020FDF7EBFF002147F6FF70FFF79A
:1022D0003DF8002078231A46642100903C20FEF748
:1022E000B9FC4FF47020FDF7DAFF00214FF478407D
:1022F000FFF72CF8002064231A466E210090462038
:10230000FEF7A8FC4FF47020FDF7C9FF00214FF243
:10231000DE70FFF71BF8002050231A46782100904A
:102320001846FEF797FC4FF47020FDF7B8FF002128
:1023300040F2FF70FFF70AF800203C231A46822182
:1023400000905A20FEF786FC4FF47020FDF7A7FF9F
:102350004FF4FC60FFF70AF809A102A8FFF7F6FCAA
:10236000FEF7EEFFC08800EBC0004004040C02A999
:102370002046FEF7C5FB0948FDF791FF34B010BDBC
:1023800020202020202020B0B44B31BCFCBFAACAA2
:10239000BCD3CECFB72E2E2E2E2E2E00FFFF0F0039
:1023A00010B53F48008870B13D480088F0280ADC2D
:1023B0003B48B0F87800282805D03948B0F87800B4
:1023C000B0F5827F03DD0120354981F8F100344802
:1023D000B0F8780033494988884212D130480088E3
:1023E0003049098888420CDD2E4800882D498988AB
:1023F00008442B490988884203DB0120284981F8D9
:10240000F1002748B0F8780027494988884212D15E
:10241000234800882449098888420CDD2248008826
:102420002149898808441E490988884203DB012024
:102430001B4981F8F10003241AE0194830F8140010
:1024400017490988884211D11548783030F81400AE
:102450001349B1F87810884208D10120104981F859
:10246000F10012480079401E10490871601C84B2C6
:102470000B4890F8F000A042DFDC094890F8F1002A
:10248000012806D00948007918B1084800680028DA
:1024900003DA00F06BF8012010BD0020FCE700001B
:1024A00024010020440000204C00002054000020A3
:1024B00010B519480068B0F57A7F2AD14FF47840FA
:1024C000FEF754FF15A11C48FFF740FCFEF738FF4C
:1024D000C08800EB80004004040C17492046FEF73A
:1024E0000FFB6FF07F40FDF7DAFE6FF07F40FDF7E6
:1024F000D6FE00200849086010480388104802886A
:1025000000210846FEF71AFA00200E490870012043
:1025100010BD0020FCE700005400002020202020F7
:10252000202020202020B9A7CFB2C4E3CDEAB3C930
:10253000CCF4D5BD00000000C00000205E000020EB
:102540005C0000202C00002070B504460D46E1B26E
:102550000548FFF7E5FB00BF80210348FFF718FBA4
:102560000028F9D0204670BD0038014010B5FEF7B4
:10257000E7FEC4881EA12046FEF78EFA4FF4807154
:102580002148FEF79AF92148FDF789FE4FF4807142
:102590001D48FEF790F91D48FDF781FE4FF480714C
:1025A0001948FEF78AF91948FDF779FE4FF4807152
:1025B0001548FEF780F91548FDF771FE4FF480715C
:1025C0001148FEF77AF91148FDF769FE4FF4807162
:1025D0000D48FEF770F90E4803880E480288002166
:1025E0000846FEF7ABF900200B49087010BD00004B
:1025F0002020202020202020202067616D65206F72
:10260000766572210000000000080140FFFF0F0006
:102610005E0000205C0000202C00002038B5FC4843
:102620008078012803D0FB48807801282BD1002036
:10263000FEF79CFE0120F64A0090517810780A239C
:102640001A46FEF707FBFDF78FFD142190FBF1F210
:1026500001FB120000EB80004006000EEC49087000
:10266000FDF782FD142190FBF1F201FB120000EB5B
:102670008000322101EB4000E5494870002088705D
:102680000120E4498870E3488078012803D0E048BD
:102690008078012828D10020FEF768FE0120DD4A5D
:1026A0000090517810780A231A46FEF7D3FAFDF706
:1026B0005BFD142190FBF1F201FB120000EB8000A6
:1026C0004006000ED3490870FDF74EFD142190FB23
:1026D000F1F201FB120000EB8000322101EB40001F
:1026E000CC49487000208870C948807868B90021BA
:1026F0004FF47840FEF72AFE0120C54A0090517839
:1027000010780A231A46FEF7A5FAC248807868B9FD
:1027100000214FF47840FEF719FE0120BD4A0090D9
:10272000517810780A231A46FEF794FABA4880784E
:10273000012803D0B948006832283ADDB74800685C
:1027400032280BDD0020FEF711FE0120B24A009076
:10275000517810780A231A46FEF77CFA00BFFDF77D
:1027600003FD142190FBF1F201FB120000EB80004D
:10277000282101EB4000A8490870FDF7F5FC142161
:1027800090FBF1F201FB120000EB8000282101EB2D
:102790004000A149487000208870084600789C4994
:1027A00009788842DBD09C4840789949497888422A
:1027B000D5D09B488078012803D0984800683228FB
:1027C00048DD9648006832280BDD0020FEF7CEFD7C
:1027D0000120934A0090517810780A231A46FEF798
:1027E00039FA00BFFDF7C0FC142190FBF1F201FBA8
:1027F000120000EB8000282101EB4000884908709E
:10280000FDF7B2FC142190FBF1F201FB120000EB8A
:102810008000282101EB4000814948700020887029
:102820007E4908607E480078794909788842D9D085
:102830007B484078764949788842D3D078480078F8
:10284000754909788842CDD07548407872494978F1
:102850008842C7D07048807868B900214FF61F00C1
:10286000FEF774FD01206C4A0090517810780A231D
:102870001A46FEF7EFF96A48807868B900214FF6EA
:102880001F00FEF763FD0120654A00905178107823
:102890000A231A46FEF7DEF96248C079012803D000
:1028A00061480068502841DD5F480068502815DD08
:1028B0000020FEF75BFD00240CE00120594A009047
:1028C00051881288224490B20A231A46FEF7C2F9B0
:1028D000601C84B253488088A042EEDCFDF744FCC3
:1028E000282190FBF1F201FB120014304D49888041
:1028F000FDF73AFC0F2190FBF1F201FB120000EB17
:102900008000192101EB400046490880FDF72CFCAE
:102910000F2190FBF1F201FB120000EB800032214D
:1029200001EB40003F4948800020C8713F48C07912
:10293000012803D03C480068502843DD3A4800682D
:10294000502815DD0020FEF711FD00240CE00120C9
:10295000364A009051881288224490B20A231A46BF
:10296000FEF778F9601C84B230488088A042EEDC23
:10297000FDF7FAFB282190FBF1F201FB1200143065
:102980002A498880FDF7F0FB0F2190FBF1F201FB53
:10299000120000EB8000192101EB40002349088060
:1029A000FDF7E2FB0F2190FBF1F201FB120000EBBF
:1029B0008000322101EB40001C4948800020C87192
:1029C000194908601748C079B8B900214FF4FC6074
:1029D000FEF7BCFC00240CE00120124A0090518854
:1029E0001288224490B20A231A46FEF733F9601C7B
:1029F00084B20C488088A042EEDC0C48C07940BB11
:102A000000214FF4FC60FEF7A1FC00241DE0000053
:102A1000380000203B0000203E0000203000002055
:102A20004100002044000020340000204C00002021
:102A300001200D4A009051881288224490B20A2346
:102A40001A46FEF707F9601C84B207488088A04246
:102A5000EEDC06480068401C044908600448006831
:102A6000401C0349086038BD4C00002030000020A5
:102A70003400002008B50620FEF73CFAFEF796FA6F
:102A8000FEF7CAFCFDF7FCFBFFF722F8FEF72EFC71
:102A9000FEF752FF1B48FEF763FC00214FF6E07083
:102AA000FEF754FCFDF74CFD1748038817480288D1
:102AB00000210846FDF742FF23E020211448FDF7DE
:102AC000FAFE1448007810B9FFF796FB19E02021B0
:102AD0000F48FDF7F2FE01210D48FDF7ECFE002046
:102AE0004FF48773F02201460090FEF7B3F80AA076
:102AF000FFF71CF900F014F801210548FDF7DDFE91
:102B000000BFDAE7840000205E0000205C000020A7
:102B1000000C01402C000020746573740A00000052
:102B200038B50220D54981F8F000002081F8F10085
:102B3000012081F8F2000020D149086004200871CA
:102B40000120D0498870D0498870D0498870D04918
:102B50008870D049C871002088710120CE49C871A1
:102B600088710020C54908803220A1F878000A2029
:102B700048803221C148A0F87A10C8480388C84864
:102B8000028800210846FDF7D9FE73E1002147F6CF
:102B9000FF70FEF7DBFBC3A1C848FFF7D7F8FEF7CD
:102BA000CFFBC588C5492846FDF7AAFFB448C4A194
:102BB0000268C248FFF7CAF800211F20FEF7C6FBD3
:102BC000FEF7BEFBC08800EBC0004004050CBB490B
:102BD0002846FDF795FF00214FF6FF70FEF7B6FB84
:102BE0000020F0231A4628210090FEF733F8FFF763
:102BF00015FDA24890F8F000401E84B20FE0601E60
:102C00009E4931F8100021F81400601E783131F827
:102C100010109A48783020F81410601E84B2002CEE
:102C2000EDDC964890F8F200012806D002280AD080
:102C300003280ED004281CD113E0904800880A30E5
:102C40008E49088015E08D4800880A388B49088035
:102C50000FE08A48B0F878000A388849A1F878006F
:102C600007E08648B0F878000A308449A1F8780077
:102C700000BF00BF002413E000214FF47840FEF7AE
:102C800065FB01207D4A7832009032F81410783AC2
:102C900032F814000A231A46FDF7DCFF601C84B2E8
:102CA000764890F8F000A042E6DC754800683228CB
:102CB00003DA8C48FDF7F3FA13E0714800686428E2
:102CC00003DA8948FDF7EBFA0BE06D4800687828D5
:102CD00003DA8648FDF7E3FA03E04FF6FF70FDF7ED
:102CE000DEFA0020FEF742FB0120644A009092F8D1
:102CF000F020521E614B783333F812105F4A92F87D
:102D0000F020521E783B33F812000A231A46FDF7D2
:102D1000A1FF4FF47840FEF729FB58480088594935
:102D20000978884226D15548B0F878005549497845
:102D300088421FD10020FEF719FB0120514A009064
:102D4000517810780A231A46FDF784FF4FF4784033
:102D5000FEF70CFB494890F8F000401C474981F809
:102D6000F000474800680A3045490860012045499D
:102D7000887077E04148008843490978884226D125
:102D80003E48B0F878004049497888421FD1002079
:102D9000FEF7ECFA01203C4A0090517810780A23A3
:102DA0001A46FDF757FF4FF47840FEF7DFFA334835
:102DB00090F8F000401C314981F8F000304800687C
:102DC0000A302F49086001202F4988704AE02B48BB
:102DD00000882E49097888421FD12848B0F8780029
:102DE0002A494978884218D10020FEF7BFFA01200D
:102DF000264A0090517810780A231A46FDF72AFFD8
:102E00004FF47840FEF7B2FA1D48006814381C49A8
:102E1000086001201D49887024E0184800881C497A
:102E2000097888421ED11548B0F8780018494978C9
:102E3000884217D10020FEF799FA0120144A009029
:102E4000517810780A231A46FDF704FF4FF47840B2
:102E5000FEF78CFA0A480068143809490860012016
:102E60000B498870FFF79CFA00B104E0FFF720FBE4
:102E700000B100E08AE600BF38BD00002401002058
:102E800054000020380000203B0000203E000020BD
:102E900041000020440000204C0000205E00002083
:102EA0005C00002020202020202020202020CCB0EA
:102EB000B3D4C9DFD3CECFB700000000C0000020DC
:102EC000B7D6CAFD203A20256420202020202020CB
:102ED00020202020202020202020202020202020F2
:102EE00000000000FFFF0F00FFFF0B00FFFF0800C6
:102EF00000000000000000000000000000000000D2
:102F00000000001818181818180800081800000009
:102F10000000003424242400000000000000000011
:102F20000000000016247F2424247E2424000000B6
:102F3000000000083E6848681C1612127C10100041
:102F400000000061D296740810162949C6000000DE
:102F5000000000003C646438724ACE467F000000E6
:102F60000000001818181800000000000000000001
:102F700000000004081810303030301010180C0415
:102F8000000000201008080C0404040C081810208D
:102F9000000000080A341C6A08000000000000005D
:102FA0000000000000001818187F18181800000012
:102FB00000000000000000000000001818083000A9
:102FC0000000000000000000003C000000000000C5
:102FD00000000000000000000000001818000000C1
:102FE0000000000206040C08081010202040000019
:102FF000000000003C6642475B7342663C000000F4
:103000000000000018784808080808087E00000042
:10301000000000003C460606040810207E00000068
:10302000000000007C0606043C0202067C00000052
:10303000000000000C1C14246444FF040400000081
:10304000000000007E6060607E0202067C000000DE
:10305000000000001E306048764242623C000000E2
:10306000000000007E0206040C081810300000006A
:10307000000000003C6242361C6642423C000000F8
:10308000000000003C664242661A0204780000001C
:1030900000000000000018180000001818000000D0
:1030A0000000000000001818000000181808300088
:1030B00000000000000004183060100C0600000042
:1030C00000000000000000007E007E000000000004
:1030D000000000000000301804060C102000000062
:1030E000000000301C06060618100010100000003A
:1030F0000000001C224141DDB5A5A5AF94C0403CB5
:1031000000000000181C342426627E43C100000029
:10311000000000007C4642467C4242427C000000A7
:10312000000000001E204040404040603E00000083
:10313000000000007C4642434343424678000000C2
:10314000000000007E6060607E6060607E000000C5
:10315000000000007E6060607E60606060000000D3
:10316000000000001E604040CE4242623E0000006F
:1031700000000000424242427E42424242000000C1
:10318000000000007E181818181818187E0000009B
:10319000000000007C0404040404044478000000DF
:1031A000000000004244485070584C444200000067
:1031B0000000000020202020202020203E000000D1
:1031C000000000006266675F5B5BC1C1C100000078
:1031D00000000000626272525A4A4E4646000000E9
:1031E000000000003C6243C3C3C343623C000000D4
:1031F000000000007C46424246784040400000000B
:10320000000000003C6243C3C3C343623C180F008C
:10321000000000007C6662667C6C646662000000F0
:10322000000000003E6040601C0602027C000000BE
:10323000000000007F18181818181818180000004F
:103240000000000042424242424242623C00000012
:1032500000000000C14342622624341C1800000014
:1032600000000000C1C141495B5B7666660000005A
:103270000000000043663418181C2466C3000000D8
:1032800000000000C14266341C1818181800000025
:10329000000000007E02040C181020607E00000078
:1032A0000000001C10101010101010101010101C36
:1032B000000000402020101008080C040602000046
:1032C0000000003C0C0C0C0C0C0C0C0C0C0C0C3C02
:1032D00000000000181C2462000000000000000034
:1032E000000000000000000000000000000000FFDF
:1032F000000000201000000000000000000000009E
:103300000000000000003C06023E42467A00000039
:103310000000004040405C62424242427C000000AB
:103320000000000000001E20604060203E00000001
:103330000000000202023E62424242663A00000081
:103340000000000000003C62427E40603E00000041
:103350000000000F1810107E101010101000000058
:103360000000000000003F66426658403E43423C79
:103370000000004040405C62424242424200000085
:103380000000001818007808080808087E000000EF
:10339000000000040C007C040404040404040C7801
:1033A000000000606060626C787068646200000019
:1033B0000000007808080808080808087E000000D7
:1033C000000000000000764B4B4B4B4B4B000000C5
:1033D0000000000000005C624242424242000000E5
:1033E0000000000000003C62424342623C000000DA
:1033F0000000000000005C62424242427C404040CB
:103400000000000000003E62424242663A020202B0
:103410000000000000006E726360606060000000E9
:103420000000000000003E20203C06027C0000005E
:10343000000000001010FE10101010101E00000000
:103440000000000000004242424242663A00000092
:1034500000000000000043426624341818000000F9
:10346000000000000000C1C15B5A5E6666000000FB
:1034700000000000000062261C181C2662000000EC
:1034800000000000000043426624341C181830E09D
:103490000000000000007E060C1810207E000000D6
:1034A0000000000E18101010307010101010180EC0
:1034B000000008080808080808080808080808089C
:1034C00000000030180808080C0E0808080818301A
:1034D0000000000000000000714B0600000000002A
:1034E00000000000000000000000000000000000DC
:1034F00000000000000000000000000000000000CC
:1035000000000000000000000000000000000000BB
:103510000000000000000000000003800180018026
:103520000180018001800180018001800180000014
:10353000000003C003C00000000000000000000005
:10354000000000000000000000000E700E700E7001
:103550000C3000000000000000000000000000002F
:10356000000000000000000000000000000000005B
:1035700000000000000000000000000006180638EF
:1035800006307FFE0C300C300C300C307FFE0C60AF
:103590001C601860186000000000000000000000BF
:1035A000000000000000000000C000C00FF83CC890
:1035B00031C031803D801F8003F001F8031C030CF3
:1035C000031C3FF83FE00700060000000000000079
:1035D00000000000000000001C007E0E630C631859
:1035E00063307E6000C001800300077C0EE61CC6CD
:1035F00018C630C6607C000000000000000000001B
:10360000000000000000000000000FE01CF0387017
:1036100038701C601FC00F003F8C71CC60EC607C68
:1036200070383CFC1FCE00000000000000000000CD
:103630000000000000000000000003C001800180C5
:1036400001800000000000000000000000000000F9
:10365000000000000000000000000000000000006A
:103660000000000000000000003000E001C0018008
:1036700003000700060006000E000E000E000E00FC
:10368000060007000300038001C000E000300000D6
:1036900000000000000000000C0006000380018014
:1036A00001C000E000600060007000700070006009
:1036B000006000E000C00180038006000C000000F4
:1036C00000000000000000000000018011881DB80B
:1036D00003C007E03DBC018801800000000000003D
:1036E00000000000000000000000000000000000DA
:1036F00000000000000000000000000000000000CA
:10370000018001800180018001807FFE01800180B5
:1037100001800180000000000000000000000000A7
:103720000000000000000000000000000000000099
:103730000000000000000000000000000000000089
:1037400003C003C001C001C003801F0000000000CF
:103750000000000000000000000000000000000069
:10376000000000000000000000000FF0000000005A
:103770000000000000000000000000000000000049
:103780000000000000000000000000000000000039
:103790000000000000000000000000000000000029
:1037A00003C003C003C000000000000000000000D0
:1037B0000000000000000000000000180038003089
:1037C000006000E000C001C00180030003000600AB
:1037D0000E000C001C00180030000000000000006B
:1037E0000000000000000000000001800FF01C3805
:1037F000381C301C707E70EE738E7E0E7C0C300C8C
:10380000381C1E780FE000000000000000000000DF
:1038100000000000000000000000000007C01FC002
:1038200039C001C001C001C001C001C001C001C058
:1038300001C03FFC3FFC0000000000000000000051
:103840000000000000000000000003801FF0183896
:103850000038001800380038007001E003800700CD
:103860001C003FFC3FFC00000000000000000000C6
:103870000000000000000000000007801FF000387A
:1038800000380038003007E007F00038001C001C4A
:10389000001820F83FE000000000000000000000D9
:1038A00000000000000000000000000000F001B077
:1038B000033007300E301C30383070307FFE7FFE12
:1038C0000030003000300000000000000000000068
:1038D0000000000000000000000000001FF81800B9
:1038E0001800180018001FE000F8001C001C001C45
:1038F000003800F01FC000000000000000000000C1
:1039000000000000000000000000000003F80F00AD
:103910001C001800300037F83C3C300C300C380CE0
:10392000381C1E380FF000000000000000000000EE
:103930000000000000000000000000003FFC001C30
:10394000001800380070006000E001C001800380B2
:10395000070006000E00000000000000000000004C
:103960000000000000000000000003C01FF8381C29
:10397000381C381C1C380FF007F01C78381C300C31
:10398000381C3C380FF00000000000000000000070
:103990000000000000000000000003801FF0383825
:1039A000301C701C700C380C1FFC0FCC001C001855
:1039B00000701FE01F8000000000000000000000F9
:1039C00000000000000000000000000000000000F7
:1039D000000003C003C001800000000000000000E0
:1039E00003C003C003C0000000000000000000008E
:1039F00000000000000000000000000000000000C7
:103A0000000003C003C001800000000000000000AF
:103A100003C003C001C001C003800F00000000000C
:103A20000000000000000000000000000000000096
:103A3000003800F001C007001E0038000E000780AB
:103A400001C0007000300000000000000000000015
:103A50000000000000000000000000000000000066
:103A60000000000000003FFC000000003FFC3FFCA5
:103A70000000000000000000000000000000000046
:103A80000000000000000000000000000000000036
:103A90001C000F00038001E00078001C007001E0B2
:103AA00003800E000C000000000000000000000079
:103AB000000000000000000000000FC000F000380F
:103AC00000380038003803F00380030003000000D2
:103AD00000000780078000000000000000000000D8
:103AE000000000000000000000E007F80C0C1806C1
:103AF0003006700363F36633C673CC63CC62CC6666
:103B0000CCE6C7FCE0006000700038101FF0000039
:103B100000000000000000000000000003C007E0FB
:103B200006E00E700E700C301C3818183FFC3FFC7D
:103B3000700E600EE00700000000000000000000B2
:103B40000000000000000000000000003FF03838D6
:103B5000381C381C38383FF03FF8381C380C380C0B
:103B6000381C3FF83FE000000000000000000000AB
:103B70000000000000000000000000E007FC1E0440
:103B800038003800300070007000700030003800DD
:103B90003C001F9C07FC000000000000000000002B
:103BA0000000000000000000000000003FF030783E
:103BB000301C300C300E300E300E300E300E301CFB
:103BC00030383FF03FC0000000000000000000005F
:103BD0000000000000000000000000001FF81800B6
:103BE0001800180018001FF81FF818001800180017
:103BF00018001FF81FF8000000000000000000007F
:103C00000000000000000000000000001FF8180085
:103C10001800180018001FF81FF8180018001800E6
:103C2000180018001800000000000000000000004C
:103C30000000000000000000000000F007FC1E046F
:103C4000380030007000700070FC700C700C300C8C
:103C5000380C1F1C07FC00000000000000000000E2
:103C6000000000000000000000000000300C300CDC
:103C7000300C300C300C3FFC3FFC300C300C300C66
:103C8000300C300C300C0000000000000000000080
:103C90000000000000000000000000003FFC018068
:103CA000018001800180018001800180018001800C
:103CB00001803FFC3FFC000000000000000000000D
:103CC0000000000000000000000000001FF00030B5
:103CD0000030003000300030003000300030003064
:103CE00000701DE01FC00000000000000000000088
:103CF000000000000000000000000000381C3870C8
:103D000038E039C03B803F003F003B8039C038E09D
:103D100038703838381C0000000000000000000037
:103D20000000000000000000000000001C001C005B
:103D30001C001C001C001C001C001C001C001C00A3
:103D40001C001FFC1FFC0000000000000000000021
:103D5000000000000000000000000000381C7C3C57
:103D60006C3E6E6E666E66CE63C663866186600666
:103D70006006600660060000000000000000000011
:103D80000000000000000000000000003C0C3C0CA3
:103D90003E0C360C330C338C318C31CC30EC306C27
:103DA000307C303C301C00000000000000000000AF
:103DB0000000000000000000000001C00FF81C3CE3
:103DC000381C700E700E60066006700E700E700C5F
:103DD000381C1E780FE0000000000000000000000A
:103DE0000000000000000000000000003FF0383C30
:103DF000381C380C380C381C38783FE03800380054
:103E0000380038003800000000000000000000000A
:103E10000000000000000000000001C00FF81C3C82
:103E2000381C700E700E60066006700E700E700CFE
:103E3000381C1E780FE0018001C000FF003C00002C
:103E40000000000000000000000000003FF03838D3
:103E500038183818383838F03FC038E038703838FB
:103E60003838381C380E0000000000000000000048
:103E70000000000000000000000001E00FF8380022
:103E8000380038003C001F8003F00078001C001C44
:103E9000001C38783FE00000000000000000000037
:103EA0000000000000000000000000007FFE018014
:103EB00001800180018001800180018001800180FA
:103EC000018001800180000000000000000000006F
:103ED000000000000000000000000000300C300C6A
:103EE000300C300C300C300C300C300C300C300CF2
:103EF000381C1C380FF0000000000000000000001B
:103F0000000000000000000000000000E006700E4D
:103F1000700E381C381C1C181C380C300E700660D3
:103F200007E003C003C00000000000000000000024
:103F300000000000000000000000000060066006B5
:103F4000600660066186638673C673CE766C366CD7
:103F50003C3C3C3C381C000000000000000000001D
:103F6000000000000000000000000000301C3818B5
:103F70001C380E7007E003C003C007E00E701C3849
:103F80001838381C700E000000000000000000000F
:103F9000000000000000000000000000700E700C27
:103FA000381C1C380E70066007E003C001800180D9
:103FB000018001800180000000000000000000007E
:103FC0000000000000000000000000003FFC001C9A
:103FD0000038007000E001C0038007000E000C00F4
:103FE00018003FFC3FFC0000000000000000000043
:103FF000000000000000000007F007F006000600C7
:104000000600060006000600060006000600060080
:1040100006000600060006000600060007F0000085
:104020000000000000000000000018001C000C0050
:104030000600070003000380018001C000C000608B
:104040000070003000380018000C00000000000074
:1040500000000000000000000FE00FE000600060C2
:104060000060006000600060006000600060006050
:104070000060006000600060006000600FE0000011
:1040800000000000000000000000000003C006C0A7
:1040900006600C301818301C000000000000000002
:1040A0000000000000000000000000000000000010
:1040B0000000000000000000000000000000000000
:1040C00000000000000000000000000000000000F0
:1040D000000000000000000000000000FFFF0000E2
:1040E000000000000000000000001E00038000002F
:1040F00000000000000000000000000000000000C0
:1041000000000000000000000000000000000000AF
:10411000000000000000000000000000000000009F
:1041200000001FF01038001C001C0FFC1C1C381C69
:10413000381C3CFC1FDC00000000000000000000F8
:1041400000000000000000000000380038003800C7
:1041500038003BF83E1C3C1C380C380C380C380C32
:10416000381C3C781FE00000000000000000000048
:10417000000000000000000000000000000000003F
:10418000000007F80E001C00380038003800380026
:104190001C000F1807F800000000000000000000DD
:1041A00000000000000000000000001C001C001CBB
:1041B000001C0FFC1C1C381C301C301C301C301C1C
:1041C000383C1CFC0F9C00000000000000000000B8
:1041D00000000000000000000000000000000000DF
:1041E00000000FF01C38381C300C3FFC3000300051
:1041F00038001E0C07FC000000000000000000005A
:104200000000000000000000003C01FE03800300ED
:10421000030003007FFC7FFC030003000300030096
:104220000300030003000000000000000000000085
:10423000000000000000000000000000000000007E
:1042400000000FFE1C383818381818381FF03B8053
:1042500030003FF01FFC300E700E381C1FF80000BD
:1042600000000000000000000000380038003800A6
:1042700038003BF83E383C1C381C381C381C381CB5
:10428000381C381C381C0000000000000000000032
:104290000000000000000000018003C003C0000017
:1042A00000001FC001C001C001C001C001C001C0A9
:1042B00001C001C03FFC0000000000000000000041
:1042C00000000000000000000020007000700000EE
:1042D00000003FF00070007000700070007000700F
:1042E0000070007000700070007020E03FC000009F
:1042F0000000000000000000000018001800180076
:104300001800183C187018E01B801F001B8019E073
:1043100018701838181C0000000000000000000091
:10432000000000000000000000001FC001C001C02C
:1043300001C001C001C001C001C001C001C001C075
:1043400001C001C03FFC00000000000000000000B0
:10435000000000000000000000000000000000005D
:1043600000006F3C79EE71CE718E718E718E718E00
:10437000718E718E718E0000000000000000000040
:10438000000000000000000000000000000000002D
:1043900000003BF83E383C1C381C381C381C381CCC
:1043A000381C381C381C0000000000000000000011
:1043B00000000000000000000000000000000000FD
:1043C00000000FF01C3C381C700E700E700E700C4C
:1043D000381C1E780FE00000000000000000000004
:1043E00000000000000000000000000000000000CD
:1043F00000003BF83E1C3C1C380C380C380C380CC8
:10440000381C3C783FE038003800380038000000A5
:10441000000000000000000000000000000000009C
:1044200000000FFC1C1C381C301C301C301C301CC5
:10443000383C1CFC0F9C001C001C001C001C0000D5
:10444000000000000000000000000000000000006C
:10445000000019F81F1C1C0C180E1800180018007A
:104460001800180018000000000000000000000004
:10447000000000000000000000000000000000003C
:1044800000000FF81C0018001E000FC001F80018F3
:10449000001818381FF000000000000000000000A5
:1044A0000000000000000000000000000600060000
:1044B00006007FFC06000600060006000600060057
:1044C0000700078401FC000000000000000000005D
:1044D00000000000000000000000000000000000DC
:1044E0000000381C381C381C381C381C381C381C80
:1044F000383C1CFC0FDC0000000000000000000045
:1045000000000000000000000000000000000000AB
:104510000000700C381C38181C380C300E70066007
:1045200007E003C003C0000000000000000000001E
:10453000000000000000000000000000000000007B
:104540000000600660066186738E73CC33CC366CD7
:10455000366C3C3C3C3800000000000000000000CD
:10456000000000000000000000000000000000004B
:104570000000381C1C380E7007E003C003C007E0C1
:104580000E701C38381E0000000000000000000003
:10459000000000000000000000000000000000001B
:1045A0000000700C381C38181C380C300E70066077
:1045B00007E003C003C0038007000E007C0000007A
:1045C00000000000000000000000000000000000EB
:1045D00000001FF80038007000E001C003800700F1
:1045E0000C001FFC3FFC0000000000000000000069
:1045F0000000000000000000007801F80380038044
:1046000003800380038003003F003E00030003801B
:104610000380038003800380038001C000F8000052
:104620000000000001800180018001800180018084
:104630000180018001800180018001800180018072
:1046400001800180018001800180018001800000E3
:1046500000000000000000001E001F80018001C05B
:1046600001C001C001C000C000FC007C00C001C04E
:1046700001C001C001C001C001C003801F000000D3
:10468000000000000000000000000000000000002A
:104690000000000000001C003F0671CE60FC00001E
:1046A000000000000000000000000000000000000A
:1046B00000000000000000000000000000000000FA
:1046C00000000000000000000000000000000000EA
:1046D00000000000000000000000000000000000DA
:1046E00000000000000000000000000000000000CA
:1046F00000000000000000000000000000000000BA
:1047000000000000000000000000000000000000A9
:104710000000000000000000000000000000000099
:104720000000003C00003C00003C00003C00003C5D
:1047300000003C00003C00003C00003C00003C004D
:10474000003C00003C00003C00003C000000000079
:104750000000003C00007E00003C00000000000063
:104760000000000000000000000000000000000049
:104770000000000000000000000000000000000039
:10478000000003C3E003C3E003C3C003C3C003C30B
:10479000C003C3C003C1C00000000000000000004F
:1047A0000000000000000000000000000000000009
:1047B00000000000000000000000000000000000F9
:1047C00000000000000000000000000000000000E9
:1047D00000000000000000000000000000000000D9
:1047E000000000000000000001E0E001C0E001C0A6
:1047F000E001C0E03FFFFE3FFFFE03C1C00381C0F8
:104800000381C00381C07FFFFC7FFFFC078380071B
:104810000380070380070380070780000000000073
:104820000000000000000000000000000000000088
:104830000000000000000000000000000000000078
:104840000700000F00000E0001FFF007FFF01F0E31
:10485000001E1E001E1C001E1C000FDC0007FC00BA
:1048600000FF80003FF00038F800387800783C0006
:1048700070783071F83FFFE01FFF0000E00000E0BB
:104880000000E00000000000000000000000000048
:104890000000000000000000000000000000000018
:1048A00000000F800F3FE01E78703C7070707070D9
:1048B000E07071C03FE3801FC700000E00001C00C5
:1048C00000780000F0F001E7FC03CF0E078E0E0F1A
:1048D0000E0E1E0E0E3C07BC7003F8000000000018
:1048E00000000000000000000000000000000000C8
:1048F00000000000000000000000000000000000B8
:10490000000000000001FF0007FF800F03C00F033D
:10491000C00F03C00F0780079F0003FE0003F000D5
:104920000FF83C3E7C3C3C1F3C780FF87807F87C45
:1049300001F03E03F81FFFFC07FE1F00000000000F
:104940000000000000000000000000000000000067
:104950000000000000000000000000000000000057
:104960000000003E00003C00003C00003C00003C19
:1049700000003C00003C00000000000000000000BF
:104980000000000000000000000000000000000027
:104990000000000000000000000000000000000017
:1049A0000000000000000000000000000000000007
:1049B00000000000000000000000000000000000F7
:1049C00000800001C0000780000F00001E00003CB6
:1049D0000000780000F00000E00001E00001E000CD
:1049E00001C00003C00003C00001C00001E00001DD
:1049F000E00000F00000F000007800003C00001E25
:104A000000000F000007C00001C00000000000000F
:104A10000000000000000000000000000000000096
:104A2000000003C00001E00000F000007C00003E38
:104A300000001E00000F00000780000780000380B8
:104A40000003C00003C00003C00003C000038000D7
:104A50000780000780000F00001E00003C00007867
:104A60000000F00001E000038000000000000000F2
:104A70000000000000000000000000000000000036
:104A80000000001C00001C000018000F18F007DBDD
:104A9000E0007F0000FF0007DBE00E187000180048
:104AA000001C00001C0000000000000000000000CE
:104AB00000000000000000000000000000000000F6
:104AC00000000000000000000000000000000000E6
:104AD00000000000000000000000000000000000D6
:104AE00000000000000000000000000000000000C6
:104AF00000003C00003C00003C00003C00003C008A
:104B0000003C003FFFFC3FFFFC003C00003C00007D
:104B10003C00003C00003C000000000000000000E1
:104B20000000000000000000000000000000000085
:104B30000000000000000000000000000000000075
:104B40000000000000000000000000000000000065
:104B50000000000000000000000000000000000055
:104B60000000000000000000000000000000000045
:104B70007C00007E00007E00003E00001E00003C25
:104B80000000F80007E00004000000000000000042
:104B90000000000000000000000000000000000015
:104BA0000000000000000000000000000000000005
:104BB00000000000000000000000000000000000F5
:104BC00000000003FFE003FFE00000000000000021
:104BD00000000000000000000000000000000000D5
:104BE00000000000000000000000000000000000C5
:104BF00000000000000000000000000000000000B5
:104C000000000000000000000000000000000000A4
:104C10000000000000000000000000000000000094
:104C20000000000000000000000000000000000084
:104C30007C0000FE0000FE00007E0000000000007E
:104C40000000000000000000000000000000000064
:104C50000000000000000000000000000000000054
:104C600000000000780000F00000E00001E0000318
:104C7000C0000380000780000F00000E00001E002F
:104C8000003C0000380000700000F00000E000016F
:104C9000C00003C0000780000700000F00001E00D6
:104CA000001C0000000000000000000000000000E8
:104CB00000000000000000000000000000000000F4
:104CC000000000000000000001FFC007FFE00F002F
:104CD000F01E00781E003C3C00FC3C07FC3C1FBC66
:104CE0003C7C1C3DF03C3FC03C3F003C1E00381E5D
:104CF00000780F80F007FFE001FF80000000000057
:104D000000000000000000000000000000000000A3
:104D10000000000000000000000000000000000093
:104D20000000000000000000007E0003FE001FDE07
:104D3000000E1E00001E00001E00001E00001E00CF
:104D4000001E00001E00001E00001E00001E0000CD
:104D50001E00001E000FFFF80FFFF800000000000B
:104D60000000000000000000000000000000000043
:104D70000000000000000000000000000000000033
:104D8000000000000000000003FF800FFFE00E01A4
:104D9000F00000F00000F00000F00000F00001E082
:104DA0000003C0000F80003E00007C0001F0000303
:104DB000C0000F80001FFFFC1FFFFC000000000070
:104DC00000000000000000000000000000000000E3
:104DD00000000000000000000000000000000000D3
:104DE00000000000000000000FFF800FFFE0000146
:104DF000E00000F00000F00001E00003C001FF004F
:104E000001FFC00003F00000780000780000780087
:104E100000780001F00FFFC00FFF0000000000004D
:104E20000000000000000000000000000000000082
:104E30000000000000000000000000000000000072
:104E40000000000000000000000FC0001FC0003F75
:104E5000C0007BC000F3C001E3C003C3C00783C030
:104E60000F03C01C03C03803C07FFFFE7FFFFE009E
:104E700003C00003C00003C00003C0000000000026
:104E80000000000000000000000000000000000022
:104E90000000000000000000000000000000000012
:104EA00000000000000000000FFFE00FFFE00F0017
:104EB000000F00000F00000F00000F00000FFF8028
:104EC0000FFFE00000F0000078000078000078009C
:104ED00000F00003E00FFFC00FFE00000000000024
:104EE00000000000000000000000000000000000C2
:104EF00000000000000000000000000000000000B2
:104F00000000000000000000003FF001FFF003E09F
:104F1000000780000F00001E00001E1F001FFFE0A2
:104F20001FC1F81E00781E003C1E003C1E003C0FF6
:104F300000780F80F807FFE001FF8000000000000C
:104F40000000000000000000000000000000000061
:104F50000000000000000000000000000000000051
:104F600000000000000000001FFFFC1FFFFC00000D
:104F7000780000F00000E00001E00003C0000780BE
:104F8000000F00000F00001E00003C000078000031
:104F9000F00001F00001E00003C00000000000008C
:104FA0000000000000000000000000000000000001
:104FB00000000000000000000000000000000000F1
:104FC000000000000000000003FFE00FE3F00F000E
:104FD000781E00781E00780F00F007E3E001FF80E4
:104FE00001FF8007E7E00F00F81E00781E003C1E5E
:104FF000007C1F00F80FFFF003FFC000000000005E
:1050000000000000000000000000000000000000A0
:105010000000000000000000000000000000000090
:10502000000000000000000003FF800FC7E01E002A
:10503000F01E00783C00783C00783C00381E007878
:105040000FEFF807FFB80000780000780000F000CC
:1050500001E0000FC00FFF000FF000000000000093
:105060000000000000000000000000000000000040
:105070000000000000000000000000000000000030
:105080000000000000000000000000000000000020
:1050900000000000007E00007E00007E000018007E
:1050A0000000000000000000000000000000000000
:1050B0003C00007E00007E00003E0000000000007A
:1050C00000000000000000000000000000000000E0
:1050D00000000000000000000000000000000000D0
:1050E00000000000000000000000000000000000C0
:1050F00000000000007E00007E00007E000018001E
:10510000000000000000000000000000000000009F
:105110003E00007E00007F00001F00001E00001EF9
:105120000000FC0007F00004000000000000000088
:10513000000000000000000000000000000000006F
:10514000000000000000000000000000000000005F
:10515000400001E00007C0001F00007E0001F800D1
:1051600003E0000F80000F800003E00000F8000063
:105170003E00000F800003E00000E000000000009F
:10518000000000000000000000000000000000001F
:10519000000000000000000000000000000000000F
:1051A00000000000000000000000000000000000FF
:1051B000000000000000000000000000001FFFF8D9
:1051C0000000000000000000001FFFF81FFFF800B3
:1051D00000000000000000000000000000000000CF
:1051E00000000000000000000000000000000000BF
:1051F00000000000000000000000000000000000AF
:10520000000000000000000000000000000000009E
:105210000007800003E00000F800003E00000F805F
:105220000003E00000F80001F00007C0001F0000CC
:105230007C0001F00007C000030000000000000037
:10524000000000000000000000000000000000005E
:10525000000000000000000000000000000000004E
:10526000000001C00001FE00007F800007C00001B7
:10527000E00000F00000F00001F00003E0007FC05B
:10528000007E000070000070000070000000000050
:10529000000000F80000F80000F800000000000026
:1052A00000000000000000000000000000000000FE
:1052B00000000000000000000000000000000000EE
:1052C0000000001F8000FFF003C07807801C0E0064
:1052D0000E1C000E3C000F383FC778FFC770E3C7B5
:1052E00071C3C7F3C387E3C387E3878EE3878EE386
:1052F000CF8EE3FFFC71F9F0700000700000380001
:10530000003C00000F01C007FFC0000000000000CB
:10531000000000000000000000000000000000008D
:105320000000000000000000007E00007F0000FF81
:105330000000E78001E78003C3C003C3C00781E02A
:105340000781E00F00F00F00F81FFFF81FFFFC3C83
:10535000003C3C001E78001EF0000F000000000022
:10536000000000000000000000000000000000003D
:10537000000000000000000000000000000000002D
:1053800000000000000000001FFFC01FFFF01E0013
:10539000F01E00781E00781E00F01E01F01FFFC0F6
:1053A0001FFFE01E01F81E00781E003C1E003C1E80
:1053B00000781E00F81FFFE01FFF00000000000043
:1053C00000000000000000000000000000000000DD
:1053D00000000000000000000000000000000000CD
:1053E000000000000000000000FFF803FFF807C005
:1053F000000F00001E00001E00003C00003C0000EA
:105400003C00003C00003C00003E00001E00000F7D
:1054100000000FC00803FFF800FFF80000000000C4
:10542000000000000000000000000000000000007C
:10543000000000000000000000000000000000006C
:1054400000000000000000003FFF003FFFE03C01C3
:10545000F03C00783C003C3C003C3C003C3C001EE6
:105460003C001E3C001E3C003C3C003C3C00783CA8
:1054700000F83C07E03FFFC03FFC000000000000D8
:10548000000000000000000000000000000000001C
:10549000000000000000000000000000000000000C
:1054A00000000000000000000FFFF00FFFF00F00F1
:1054B000000F00000F00000F00000F00000FFFF0B2
:1054C0000FFFF00F00000F00000F00000F00000F93
:1054D00000000F00000FFFF00FFFF00000000000C1
:1054E00000000000000000000000000000000000BC
:1054F00000000000000000000000000000000000AC
:1055000000000000000000000FFFF00FFFF00F0090
:10551000000F00000F00000F00000F00000FFFF051
:105520000FFFF00F00000F00000F00000F00000F32
:1055300000000F00000F00000F000000000000003E
:10554000000000000000000000000000000000005B
:10555000000000000000000000000000000000004B
:10556000000000000000000000FFFC03FFFC0FC073
:10557000041F00001E00003C00003C0000780FFCEF
:10558000780FFC78003C3C003C3C003C3E003C1F5B
:10559000003C0FC03C03FFFC00FFF80000000000CF
:1055A00000000000000000000000000000000000FB
:1055B00000000000000000000000000000000000EB
:1055C00000000000000000003C003C3C003C3C00AF
:1055D0003C3C003C3C003C3C003C3C003C3FFFFC75
:1055E0003FFFFC3C003C3C003C3C003C3C003C3C65
:1055F000003C3C003C3C003C3C003C000000000007
:10560000000000000000000000000000000000009A
:10561000000000000000000000000000000000008A
:1056200000000000000000000FFFF80FFFF8003C32
:1056300000003C00003C00003C00003C00003C003E
:10564000003C00003C00003C00003C00003C00002E
:105650003C00003C000FFFF80FFFF80000000000C6
:10566000000000000000000000000000000000003A
:10567000000000000000000000000000000000002A
:1056800000000000000000000FFFE00FFFE000013D
:10569000E00001E00001E00001E00001E00001E0C5
:1056A0000001E00001E00001E00001E00001E00095
:1056B00003C00C07C00FFF8007FE000000000000C1
:1056C00000000000000000000000000000000000DA
:1056D00000000000000000000000000000000000CA
:1056E00000000000000000001E00781E01F01E03F4
:1056F000C01E07801E1F001E3C001E78001EF0000A
:105700001FF0001EF8001E3C001E1E001E0F801E13
:1057100007C01E01E01E00F81E007C000000000013
:105720000000000000000000000000000000000079
:105730000000000000000000000000000000000069
:1057400000000000000000000780000780000780C4
:1057500000078000078000078000078000078000A6
:10576000078000078000078000078000078000078F
:10577000800007800007FFF807FFF8000000000026
:105780000000000000000000000000000000000019
:105790000000000000000000000000000000000009
:1057A00000000000000000003E007C3F00FC3F8144
:1057B000DC3B81DC3BC39C39C39C38E71C38EF1CC5
:1057C000387E1C387C1E383C1E78001E78001E78FF
:1057D000001E78001E78001E78001E0000000000E9
:1057E00000000000000000000000000000000000B9
:1057F00000000000000000000000000000000000A9
:1058000000000000000000001F003C1F803C1FC083
:105810003C1DC03C1DE03C1CF03C1C783C1C783C12
:105820001C3C3C1C1E3C1C0F3C1C0F3C1C07BC1CA5
:1058300003FC1C01FC1C00FC1C00FC000000000020
:105840000000000000000000000000000000000058
:105850000000000000000000000000000000000048
:10586000000000000000000001FFC007FFF00F0073
:10587000F81E007C3C003C3C001E78001E78001E98
:1058800078001E78001E78001E3C003C3C003C1E48
:1058900000781F00F007FFE001FF8000000000001B
:1058A00000000000000000000000000000000000F8
:1058B00000000000000000000000000000000000E8
:1058C00000000000000000001FFF801FFFF01E000E
:1058D000F81E007C1E003C1E003C1E003C1E007892
:1058E0001E03F01FFFC01FFE001E00001E00001E52
:1058F00000001E00001E00001E000000000000004E
:105900000000000000000000000000000000000097
:105910000000000000000000000000000000000087
:10592000000000000000000001FFC007FFF00F00B2
:10593000F81E007C3C003C3C001E78001E78001ED7
:1059400078001E78001E78001E3C003C3C003C1E87
:1059500000781F80F007FFE001FF80003C00003C62
:1059600000001F06000FFF0001F80000000000000B
:105970000000000000000000000000000000000027
:1059800000000000000000000FFF800FFFE00E018C
:10599000F00E00F00E00F00E00F00E01F00FFFC050
:1059A0000FFF000E1F000E07800E03C00E01E00E59
:1059B00000F00E00F80E00780E003C000000000021
:1059C00000000000000000000000000000000000D7
:1059D00000000000000000000000000000000000C7
:1059E000000000000000000003FFF00FFFF01F00A8
:1059F000001E00001E00001F00000FC00007FC007A
:105A000000FF80000FF00001F8000078000078002F
:105A100000782000F83FFFE03FFF8000000000001A
:105A20000000000000000000000000000000000076
:105A30000000000000000000000000000000000066
:105A400000000000000000003FFFFC3FFFFC003CA6
:105A500000003C00003C00003C00003C00003C001A
:105A6000003C00003C00003C00003C00003C00000A
:105A70003C00003C00003C00003C00000000000036
:105A80000000000000000000000000000000000016
:105A90000000000000000000000000000000000006
:105AA00000000000000000003C003C3C003C3C00CA
:105AB0003C3C003C3C003C3C003C3C003C3C003C52
:105AC0003C003C3C003C3C003C3C003C3C003C1E60
:105AD00000781F00F80FFFE003FF800000000000C7
